{
  "contractName": "TokenFarm",
  "abi": [
    {
      "inputs": [
        {
          "internalType": "address",
          "name": "_dappTokenAddress",
          "type": "address"
        }
      ],
      "stateMutability": "nonpayable",
      "type": "constructor"
    },
    {
      "anonymous": false,
      "inputs": [
        {
          "indexed": true,
          "internalType": "address",
          "name": "previousOwner",
          "type": "address"
        },
        {
          "indexed": true,
          "internalType": "address",
          "name": "newOwner",
          "type": "address"
        }
      ],
      "name": "OwnershipTransferred",
      "type": "event"
    },
    {
      "inputs": [
        {
          "internalType": "uint256",
          "name": "",
          "type": "uint256"
        }
      ],
      "name": "allowedTokens",
      "outputs": [
        {
          "internalType": "address",
          "name": "",
          "type": "address"
        }
      ],
      "stateMutability": "view",
      "type": "function",
      "constant": true
    },
    {
      "inputs": [],
      "name": "dappToken",
      "outputs": [
        {
          "internalType": "contract IERC20",
          "name": "",
          "type": "address"
        }
      ],
      "stateMutability": "view",
      "type": "function",
      "constant": true
    },
    {
      "inputs": [],
      "name": "owner",
      "outputs": [
        {
          "internalType": "address",
          "name": "",
          "type": "address"
        }
      ],
      "stateMutability": "view",
      "type": "function",
      "constant": true
    },
    {
      "inputs": [],
      "name": "renounceOwnership",
      "outputs": [],
      "stateMutability": "nonpayable",
      "type": "function"
    },
    {
      "inputs": [
        {
          "internalType": "uint256",
          "name": "",
          "type": "uint256"
        }
      ],
      "name": "stakers",
      "outputs": [
        {
          "internalType": "address",
          "name": "",
          "type": "address"
        }
      ],
      "stateMutability": "view",
      "type": "function",
      "constant": true
    },
    {
      "inputs": [
        {
          "internalType": "address",
          "name": "",
          "type": "address"
        },
        {
          "internalType": "address",
          "name": "",
          "type": "address"
        }
      ],
      "name": "stakingBalance",
      "outputs": [
        {
          "internalType": "uint256",
          "name": "",
          "type": "uint256"
        }
      ],
      "stateMutability": "view",
      "type": "function",
      "constant": true
    },
    {
      "inputs": [
        {
          "internalType": "address",
          "name": "",
          "type": "address"
        }
      ],
      "name": "tokenPriceFeedMapping",
      "outputs": [
        {
          "internalType": "address",
          "name": "",
          "type": "address"
        }
      ],
      "stateMutability": "view",
      "type": "function",
      "constant": true
    },
    {
      "inputs": [
        {
          "internalType": "address",
          "name": "newOwner",
          "type": "address"
        }
      ],
      "name": "transferOwnership",
      "outputs": [],
      "stateMutability": "nonpayable",
      "type": "function"
    },
    {
      "inputs": [
        {
          "internalType": "address",
          "name": "",
          "type": "address"
        }
      ],
      "name": "uniqueTokensStaked",
      "outputs": [
        {
          "internalType": "uint256",
          "name": "",
          "type": "uint256"
        }
      ],
      "stateMutability": "view",
      "type": "function",
      "constant": true
    },
    {
      "inputs": [
        {
          "internalType": "address",
          "name": "_token",
          "type": "address"
        },
        {
          "internalType": "address",
          "name": "_priceFeed",
          "type": "address"
        }
      ],
      "name": "setPriceFeedContract",
      "outputs": [],
      "stateMutability": "nonpayable",
      "type": "function"
    },
    {
      "inputs": [],
      "name": "issueTokens",
      "outputs": [],
      "stateMutability": "nonpayable",
      "type": "function"
    },
    {
      "inputs": [
        {
          "internalType": "address",
          "name": "_user",
          "type": "address"
        }
      ],
      "name": "getUserTotalValue",
      "outputs": [
        {
          "internalType": "uint256",
          "name": "",
          "type": "uint256"
        }
      ],
      "stateMutability": "view",
      "type": "function",
      "constant": true
    },
    {
      "inputs": [
        {
          "internalType": "address",
          "name": "_user",
          "type": "address"
        },
        {
          "internalType": "address",
          "name": "_token",
          "type": "address"
        }
      ],
      "name": "getUserSingleTokenValue",
      "outputs": [
        {
          "internalType": "uint256",
          "name": "",
          "type": "uint256"
        }
      ],
      "stateMutability": "view",
      "type": "function",
      "constant": true
    },
    {
      "inputs": [
        {
          "internalType": "address",
          "name": "_token",
          "type": "address"
        }
      ],
      "name": "getTokenValue",
      "outputs": [
        {
          "internalType": "uint256",
          "name": "",
          "type": "uint256"
        },
        {
          "internalType": "uint256",
          "name": "",
          "type": "uint256"
        }
      ],
      "stateMutability": "view",
      "type": "function",
      "constant": true
    },
    {
      "inputs": [
        {
          "internalType": "uint256",
          "name": "_amount",
          "type": "uint256"
        },
        {
          "internalType": "address",
          "name": "_token",
          "type": "address"
        }
      ],
      "name": "stakeTokens",
      "outputs": [],
      "stateMutability": "nonpayable",
      "type": "function"
    },
    {
      "inputs": [
        {
          "internalType": "address",
          "name": "_token",
          "type": "address"
        }
      ],
      "name": "unstakeTokens",
      "outputs": [],
      "stateMutability": "nonpayable",
      "type": "function"
    },
    {
      "inputs": [
        {
          "internalType": "address",
          "name": "_token",
          "type": "address"
        }
      ],
      "name": "addAllowedTokens",
      "outputs": [],
      "stateMutability": "nonpayable",
      "type": "function"
    },
    {
      "inputs": [
        {
          "internalType": "address",
          "name": "_token",
          "type": "address"
        }
      ],
      "name": "tokenIsAllowed",
      "outputs": [
        {
          "internalType": "bool",
          "name": "",
          "type": "bool"
        }
      ],
      "stateMutability": "nonpayable",
      "type": "function"
    }
  ],
  "bytecode": "0x60806040523480156200001157600080fd5b506040516200223a3803806200223a833981810160405281019062000037919062000182565b620000576200004b6200009f60201b60201c565b620000a760201b60201c565b80600660006101000a81548173ffffffffffffffffffffffffffffffffffffffff021916908373ffffffffffffffffffffffffffffffffffffffff16021790555050620001fc565b600033905090565b60008060009054906101000a900473ffffffffffffffffffffffffffffffffffffffff169050816000806101000a81548173ffffffffffffffffffffffffffffffffffffffff021916908373ffffffffffffffffffffffffffffffffffffffff1602179055508173ffffffffffffffffffffffffffffffffffffffff168173ffffffffffffffffffffffffffffffffffffffff167f8be0079c531659141344cd1fd0a4f28419497f9722a3daafe3b4186f6b6457e060405160405180910390a35050565b6000815190506200017c81620001e2565b92915050565b6000602082840312156200019557600080fd5b6000620001a5848285016200016b565b91505092915050565b6000620001bb82620001c2565b9050919050565b600073ffffffffffffffffffffffffffffffffffffffff82169050919050565b620001ed81620001ae565b8114620001f957600080fd5b50565b61202e806200020c6000396000f3fe608060405234801561001057600080fd5b50600436106101165760003560e01c8063715018a6116100a2578063b83e023411610071578063b83e0234146102cb578063dd5b8467146102fb578063f1c5d6c21461032b578063f2fde38b1461035c578063fd5e6dd11461037857610116565b8063715018a614610257578063877dd39d146102615780638da5cb5b1461027d578063af3f5e221461029b57610116565b806329161a00116100e957806329161a00146101b35780632d1ad8b8146101e35780635e5f2e26146101ff5780635eb186f81461022f57806360ab58521461024d57610116565b80630bea440d1461011b578063171e44ea14610137578063276b11da1461015357806327927b3e14610183575b600080fd5b61013560048036038101906101309190611717565b6103a8565b005b610151600480360381019061014c9190611660565b610685565b005b61016d60048036038101906101689190611689565b610767565b60405161017a9190611b46565b60405180910390f35b61019d60048036038101906101989190611660565b610871565b6040516101aa91906119d5565b60405180910390f35b6101cd60048036038101906101c89190611689565b6108a4565b6040516101da9190611b46565b60405180910390f35b6101fd60048036038101906101f89190611660565b6108c9565b005b610219600480360381019061021491906116ee565b610b30565b60405161022691906119d5565b60405180910390f35b610237610b6f565b6040516102449190611a6b565b60405180910390f35b610255610b95565b005b61025f610d5f565b005b61027b60048036038101906102769190611689565b610de7565b005b610285610ee5565b60405161029291906119d5565b60405180910390f35b6102b560048036038101906102b09190611660565b610f0e565b6040516102c29190611b46565b60405180910390f35b6102e560048036038101906102e09190611660565b61103f565b6040516102f29190611b46565b60405180910390f35b61031560048036038101906103109190611660565b611057565b6040516103229190611a50565b60405180910390f35b61034560048036038101906103409190611660565b61112c565b604051610353929190611b61565b60405180910390f35b61037660048036038101906103719190611660565b6112b2565b005b610392600480360381019061038d91906116ee565b6113aa565b60405161039f91906119d5565b60405180910390f35b600082116103eb576040517f08c379a00000000000000000000000000000000000000000000000000000000081526004016103e290611ac6565b60405180910390fd5b6103f481611057565b610433576040517f08c379a000000000000000000000000000000000000000000000000000000000815260040161042a90611b06565b60405180910390fd5b8073ffffffffffffffffffffffffffffffffffffffff166323b872dd3330856040518463ffffffff1660e01b8152600401610470939291906119f0565b602060405180830381600087803b15801561048a57600080fd5b505af115801561049e573d6000803e3d6000fd5b505050506040513d601f19601f820116820180604052508101906104c291906116c5565b506104cd33826113e9565b81600160008373ffffffffffffffffffffffffffffffffffffffff1673ffffffffffffffffffffffffffffffffffffffff16815260200190815260200160002060003373ffffffffffffffffffffffffffffffffffffffff1673ffffffffffffffffffffffffffffffffffffffff168152602001908152602001600020546105559190611b9b565b600160008373ffffffffffffffffffffffffffffffffffffffff1673ffffffffffffffffffffffffffffffffffffffff16815260200190815260200160002060003373ffffffffffffffffffffffffffffffffffffffff1673ffffffffffffffffffffffffffffffffffffffff168152602001908152602001600020819055506001600260003373ffffffffffffffffffffffffffffffffffffffff1673ffffffffffffffffffffffffffffffffffffffff168152602001908152602001600020541415610681576004339080600181540180825580915050600190039060005260206000200160009091909190916101000a81548173ffffffffffffffffffffffffffffffffffffffff021916908373ffffffffffffffffffffffffffffffffffffffff1602179055505b5050565b61068d611501565b73ffffffffffffffffffffffffffffffffffffffff166106ab610ee5565b73ffffffffffffffffffffffffffffffffffffffff1614610701576040517f08c379a00000000000000000000000000000000000000000000000000000000081526004016106f890611ae6565b60405180910390fd5b6005819080600181540180825580915050600190039060005260206000200160009091909190916101000a81548173ffffffffffffffffffffffffffffffffffffffff021916908373ffffffffffffffffffffffffffffffffffffffff16021790555050565b600080600260008573ffffffffffffffffffffffffffffffffffffffff1673ffffffffffffffffffffffffffffffffffffffff16815260200190815260200160002054116107b8576000905061086b565b6000806107c48461112c565b9150915080600a6107d59190611c75565b82600160008773ffffffffffffffffffffffffffffffffffffffff1673ffffffffffffffffffffffffffffffffffffffff16815260200190815260200160002060008873ffffffffffffffffffffffffffffffffffffffff1673ffffffffffffffffffffffffffffffffffffffff1681526020019081526020016000205461085d9190611d93565b6108679190611bf1565b5050505b92915050565b60036020528060005260406000206000915054906101000a900473ffffffffffffffffffffffffffffffffffffffff1681565b6001602052816000526040600020602052806000526040600020600091509150505481565b6000600160008373ffffffffffffffffffffffffffffffffffffffff1673ffffffffffffffffffffffffffffffffffffffff16815260200190815260200160002060003373ffffffffffffffffffffffffffffffffffffffff1673ffffffffffffffffffffffffffffffffffffffff1681526020019081526020016000205490506000811161098d576040517f08c379a000000000000000000000000000000000000000000000000000000000815260040161098490611b26565b60405180910390fd5b8173ffffffffffffffffffffffffffffffffffffffff1663a9059cbb33836040518363ffffffff1660e01b81526004016109c8929190611a27565b602060405180830381600087803b1580156109e257600080fd5b505af11580156109f6573d6000803e3d6000fd5b505050506040513d601f19601f82011682018060405250810190610a1a91906116c5565b506000600160008473ffffffffffffffffffffffffffffffffffffffff1673ffffffffffffffffffffffffffffffffffffffff16815260200190815260200160002060003373ffffffffffffffffffffffffffffffffffffffff1673ffffffffffffffffffffffffffffffffffffffff168152602001908152602001600020819055506001600260003373ffffffffffffffffffffffffffffffffffffffff1673ffffffffffffffffffffffffffffffffffffffff16815260200190815260200160002054610ae99190611ded565b600260003373ffffffffffffffffffffffffffffffffffffffff1673ffffffffffffffffffffffffffffffffffffffff168152602001908152602001600020819055505050565b60058181548110610b4057600080fd5b906000526020600020016000915054906101000a900473ffffffffffffffffffffffffffffffffffffffff1681565b600660009054906101000a900473ffffffffffffffffffffffffffffffffffffffff1681565b610b9d611501565b73ffffffffffffffffffffffffffffffffffffffff16610bbb610ee5565b73ffffffffffffffffffffffffffffffffffffffff1614610c11576040517f08c379a0000000000000000000000000000000000000000000000000000000008152600401610c0890611ae6565b60405180910390fd5b60005b600480549050811015610d5c57600060048281548110610c5d577f4e487b7100000000000000000000000000000000000000000000000000000000600052603260045260246000fd5b9060005260206000200160009054906101000a900473ffffffffffffffffffffffffffffffffffffffff1690506000610c9582610f0e565b9050600660009054906101000a900473ffffffffffffffffffffffffffffffffffffffff1673ffffffffffffffffffffffffffffffffffffffff1663a9059cbb83836040518363ffffffff1660e01b8152600401610cf4929190611a27565b602060405180830381600087803b158015610d0e57600080fd5b505af1158015610d22573d6000803e3d6000fd5b505050506040513d601f19601f82011682018060405250810190610d4691906116c5565b5050508080610d5490611eba565b915050610c14565b50565b610d67611501565b73ffffffffffffffffffffffffffffffffffffffff16610d85610ee5565b73ffffffffffffffffffffffffffffffffffffffff1614610ddb576040517f08c379a0000000000000000000000000000000000000000000000000000000008152600401610dd290611ae6565b60405180910390fd5b610de56000611509565b565b610def611501565b73ffffffffffffffffffffffffffffffffffffffff16610e0d610ee5565b73ffffffffffffffffffffffffffffffffffffffff1614610e63576040517f08c379a0000000000000000000000000000000000000000000000000000000008152600401610e5a90611ae6565b60405180910390fd5b80600360008473ffffffffffffffffffffffffffffffffffffffff1673ffffffffffffffffffffffffffffffffffffffff16815260200190815260200160002060006101000a81548173ffffffffffffffffffffffffffffffffffffffff021916908373ffffffffffffffffffffffffffffffffffffffff1602179055505050565b60008060009054906101000a900473ffffffffffffffffffffffffffffffffffffffff16905090565b600080600090506000600260008573ffffffffffffffffffffffffffffffffffffffff1673ffffffffffffffffffffffffffffffffffffffff1681526020019081526020016000205411610f97576040517f08c379a0000000000000000000000000000000000000000000000000000000008152600401610f8e90611aa6565b60405180910390fd5b60005b600580549050811015611035576110158460058381548110610fe5577f4e487b7100000000000000000000000000000000000000000000000000000000600052603260045260246000fd5b9060005260206000200160009054906101000a900473ffffffffffffffffffffffffffffffffffffffff16610767565b826110209190611b9b565b9150808061102d90611eba565b915050610f9a565b5080915050919050565b60026020528060005260406000206000915090505481565b600080600090505b600580549050811015611121578273ffffffffffffffffffffffffffffffffffffffff16600582815481106110bd577f4e487b7100000000000000000000000000000000000000000000000000000000600052603260045260246000fd5b9060005260206000200160009054906101000a900473ffffffffffffffffffffffffffffffffffffffff1673ffffffffffffffffffffffffffffffffffffffff16141561110e576001915050611127565b808061111990611eba565b91505061105f565b50600090505b919050565b6000806000600360008573ffffffffffffffffffffffffffffffffffffffff1673ffffffffffffffffffffffffffffffffffffffff16815260200190815260200160002060009054906101000a900473ffffffffffffffffffffffffffffffffffffffff169050600081905060008173ffffffffffffffffffffffffffffffffffffffff1663feaf968c6040518163ffffffff1660e01b815260040160a06040518083038186803b1580156111e057600080fd5b505afa1580156111f4573d6000803e3d6000fd5b505050506040513d601f19601f820116820180604052508101906112189190611753565b50505091505060008273ffffffffffffffffffffffffffffffffffffffff1663313ce5676040518163ffffffff1660e01b815260040160206040518083038186803b15801561126657600080fd5b505afa15801561127a573d6000803e3d6000fd5b505050506040513d601f19601f8201168201806040525081019061129e91906117ca565b60ff16905081819550955050505050915091565b6112ba611501565b73ffffffffffffffffffffffffffffffffffffffff166112d8610ee5565b73ffffffffffffffffffffffffffffffffffffffff161461132e576040517f08c379a000000000000000000000000000000000000000000000000000000000815260040161132590611ae6565b60405180910390fd5b600073ffffffffffffffffffffffffffffffffffffffff168173ffffffffffffffffffffffffffffffffffffffff16141561139e576040517f08c379a000000000000000000000000000000000000000000000000000000000815260040161139590611a86565b60405180910390fd5b6113a781611509565b50565b600481815481106113ba57600080fd5b906000526020600020016000915054906101000a900473ffffffffffffffffffffffffffffffffffffffff1681565b6000600160008373ffffffffffffffffffffffffffffffffffffffff1673ffffffffffffffffffffffffffffffffffffffff16815260200190815260200160002060008473ffffffffffffffffffffffffffffffffffffffff1673ffffffffffffffffffffffffffffffffffffffff16815260200190815260200160002054116114fd576001600260008473ffffffffffffffffffffffffffffffffffffffff1673ffffffffffffffffffffffffffffffffffffffff168152602001908152602001600020546114b99190611b9b565b600260008473ffffffffffffffffffffffffffffffffffffffff1673ffffffffffffffffffffffffffffffffffffffff168152602001908152602001600020819055505b5050565b600033905090565b60008060009054906101000a900473ffffffffffffffffffffffffffffffffffffffff169050816000806101000a81548173ffffffffffffffffffffffffffffffffffffffff021916908373ffffffffffffffffffffffffffffffffffffffff1602179055508173ffffffffffffffffffffffffffffffffffffffff168173ffffffffffffffffffffffffffffffffffffffff167f8be0079c531659141344cd1fd0a4f28419497f9722a3daafe3b4186f6b6457e060405160405180910390a35050565b6000813590506115dc81611f6e565b92915050565b6000815190506115f181611f85565b92915050565b60008151905061160681611f9c565b92915050565b60008135905061161b81611fb3565b92915050565b60008151905061163081611fb3565b92915050565b60008151905061164581611fe1565b92915050565b60008151905061165a81611fca565b92915050565b60006020828403121561167257600080fd5b6000611680848285016115cd565b91505092915050565b6000806040838503121561169c57600080fd5b60006116aa858286016115cd565b92505060206116bb858286016115cd565b9150509250929050565b6000602082840312156116d757600080fd5b60006116e5848285016115e2565b91505092915050565b60006020828403121561170057600080fd5b600061170e8482850161160c565b91505092915050565b6000806040838503121561172a57600080fd5b60006117388582860161160c565b9250506020611749858286016115cd565b9150509250929050565b600080600080600060a0868803121561176b57600080fd5b600061177988828901611636565b955050602061178a888289016115f7565b945050604061179b88828901611621565b93505060606117ac88828901611621565b92505060806117bd88828901611636565b9150509295509295909350565b6000602082840312156117dc57600080fd5b60006117ea8482850161164b565b91505092915050565b6117fc81611e21565b82525050565b61180b81611e33565b82525050565b61181a81611e96565b82525050565b600061182d602683611b8a565b91507f4f776e61626c653a206e6577206f776e657220697320746865207a65726f206160008301527f64647265737300000000000000000000000000000000000000000000000000006020830152604082019050919050565b6000611893601183611b8a565b91507f4e6f20746f6b656e73207374616b6564210000000000000000000000000000006000830152602082019050919050565b60006118d3601a83611b8a565b91507f416d6f756e74206d757374206265206d6f7265207468616e20300000000000006000830152602082019050919050565b6000611913602083611b8a565b91507f4f776e61626c653a2063616c6c6572206973206e6f7420746865206f776e65726000830152602082019050919050565b6000611953601d83611b8a565b91507f546f6b656e2069732063757272656e746c79206e6f20616c6c6f7765640000006000830152602082019050919050565b6000611993601b83611b8a565b91507f5374616b696e672062616c616e63652063616e6e6f74206265203000000000006000830152602082019050919050565b6119cf81611e69565b82525050565b60006020820190506119ea60008301846117f3565b92915050565b6000606082019050611a0560008301866117f3565b611a1260208301856117f3565b611a1f60408301846119c6565b949350505050565b6000604082019050611a3c60008301856117f3565b611a4960208301846119c6565b9392505050565b6000602082019050611a656000830184611802565b92915050565b6000602082019050611a806000830184611811565b92915050565b60006020820190508181036000830152611a9f81611820565b9050919050565b60006020820190508181036000830152611abf81611886565b9050919050565b60006020820190508181036000830152611adf816118c6565b9050919050565b60006020820190508181036000830152611aff81611906565b9050919050565b60006020820190508181036000830152611b1f81611946565b9050919050565b60006020820190508181036000830152611b3f81611986565b9050919050565b6000602082019050611b5b60008301846119c6565b92915050565b6000604082019050611b7660008301856119c6565b611b8360208301846119c6565b9392505050565b600082825260208201905092915050565b6000611ba682611e69565b9150611bb183611e69565b9250827fffffffffffffffffffffffffffffffffffffffffffffffffffffffffffffffff03821115611be657611be5611f03565b5b828201905092915050565b6000611bfc82611e69565b9150611c0783611e69565b925082611c1757611c16611f32565b5b828204905092915050565b6000808291508390505b6001851115611c6c57808604811115611c4857611c47611f03565b5b6001851615611c575780820291505b8081029050611c6585611f61565b9450611c2c565b94509492505050565b6000611c8082611e69565b9150611c8b83611e69565b9250611cb87fffffffffffffffffffffffffffffffffffffffffffffffffffffffffffffffff8484611cc0565b905092915050565b600082611cd05760019050611d8c565b81611cde5760009050611d8c565b8160018114611cf45760028114611cfe57611d2d565b6001915050611d8c565b60ff841115611d1057611d0f611f03565b5b8360020a915084821115611d2757611d26611f03565b5b50611d8c565b5060208310610133831016604e8410600b8410161715611d625782820a905083811115611d5d57611d5c611f03565b5b611d8c565b611d6f8484846001611c22565b92509050818404811115611d8657611d85611f03565b5b81810290505b9392505050565b6000611d9e82611e69565b9150611da983611e69565b9250817fffffffffffffffffffffffffffffffffffffffffffffffffffffffffffffffff0483118215151615611de257611de1611f03565b5b828202905092915050565b6000611df882611e69565b9150611e0383611e69565b925082821015611e1657611e15611f03565b5b828203905092915050565b6000611e2c82611e49565b9050919050565b60008115159050919050565b6000819050919050565b600073ffffffffffffffffffffffffffffffffffffffff82169050919050565b6000819050919050565b600060ff82169050919050565b600069ffffffffffffffffffff82169050919050565b6000611ea182611ea8565b9050919050565b6000611eb382611e49565b9050919050565b6000611ec582611e69565b91507fffffffffffffffffffffffffffffffffffffffffffffffffffffffffffffffff821415611ef857611ef7611f03565b5b600182019050919050565b7f4e487b7100000000000000000000000000000000000000000000000000000000600052601160045260246000fd5b7f4e487b7100000000000000000000000000000000000000000000000000000000600052601260045260246000fd5b60008160011c9050919050565b611f7781611e21565b8114611f8257600080fd5b50565b611f8e81611e33565b8114611f9957600080fd5b50565b611fa581611e3f565b8114611fb057600080fd5b50565b611fbc81611e69565b8114611fc757600080fd5b50565b611fd381611e73565b8114611fde57600080fd5b50565b611fea81611e80565b8114611ff557600080fd5b5056fea2646970667358221220281d0366a91e7e6e259d5ec7706092ec815aace9da5a6fc314e6e730dada098964736f6c63430008000033",
  "immutableReferences": {},
  "source": "// SPDX-License-Identifier: MIT\r\n\r\n//TokenFarm contract allows users to stake and unstake ACCEPTED tokens only.\r\n//They will receiove Dapp token as incentive for staking\r\n//Users can unstake their tokens and the contract will keep track of the value of each token staked.\r\n//Uses Chainlink Aggregator, pricefeed to get value of tokens.\r\n//Allows users to get the exact value of the amount of tokens staked whether its DAI,ETH, and other apprvoed tokens\r\n\r\n//Updates: test.js files need updates\r\n//         When user unstakes tokens they should be removed from the stakers list.\r\n\r\npragma solidity ^0.8.0;\r\n\r\nimport \"@openzeppelin/contracts/access/Ownable.sol\";\r\nimport \"@openzeppelin/contracts/token/ERC20/IERC20.sol\";\r\nimport \"@chainlink/contracts/src/v0.8/interfaces/AggregatorV3Interface.sol\";\r\n\r\ncontract TokenFarm is Ownable {\r\n    // mapping token address -> staker address -> amount\r\n    mapping(address => mapping(address => uint256)) public stakingBalance;\r\n    mapping(address => uint256) public uniqueTokensStaked;\r\n    mapping(address => address) public tokenPriceFeedMapping;\r\n    address[] public stakers;\r\n    address[] public allowedTokens;\r\n    IERC20 public dappToken;\r\n\r\n    constructor(address _dappTokenAddress) public {\r\n        dappToken = IERC20(_dappTokenAddress);\r\n    }\r\n\r\n    //must have this funtion to set the pricefeed contract address for the particular token\r\n    function setPriceFeedContract(address _token, address _priceFeed)\r\n        public\r\n        onlyOwner\r\n    {\r\n        //token pricefeed mapping of the token\r\n        tokenPriceFeedMapping[_token] = _priceFeed;\r\n    }\r\n\r\n    function issueTokens() public onlyOwner {\r\n        // Issue tokens to all stakers\r\n        for (\r\n            uint256 stakersIndex = 0;\r\n            stakersIndex < stakers.length;\r\n            stakersIndex++\r\n        ) {\r\n            address recipient = stakers[stakersIndex];\r\n            //send them a token reward based on total value locked\r\n            //DappToken is teh token reward\r\n            //Calls userTotalValue function to get the value amount of users account\r\n            uint256 userTotalValue = getUserTotalValue(recipient);\r\n            //sending dapptoken to the receipent\r\n            //using the userTotalValue function. However much they have in total value staked we will issue as a reward\r\n            dappToken.transfer(recipient, userTotalValue);\r\n        }\r\n    }\r\n\r\n    //we want to return teh total value to get  getUserTotalValue number\r\n    function getUserTotalValue(address _user) public view returns (uint256) {\r\n        uint256 totalValue = 0;\r\n        require(uniqueTokensStaked[_user] > 0, \"No tokens staked!\");\r\n        for (\r\n            uint256 allowedTokensIndex = 0;\r\n            allowedTokensIndex < allowedTokens.length;\r\n            allowedTokensIndex++\r\n        ) {\r\n            //we need the value of a single token out of the list of allowed tokens this user may have deposited\r\n            totalValue =\r\n                totalValue +\r\n                getUserSingleTokenValue(\r\n                    _user,\r\n                    allowedTokens[allowedTokensIndex]\r\n                );\r\n        }\r\n        return totalValue;\r\n    }\r\n\r\n    function getUserSingleTokenValue(address _user, address _token)\r\n        public\r\n        view\r\n        returns (uint256)\r\n    {\r\n        //If the user has not staked any tokens return 0\r\n        if (uniqueTokensStaked[_user] <= 0) {\r\n            return 0;\r\n        }\r\n\r\n        (uint256 price, uint256 decimals) = getTokenValue(_token);\r\n        ((stakingBalance[_token][_user] * price) / (10**decimals));\r\n    }\r\n\r\n    function getTokenValue(address _token)\r\n        public\r\n        view\r\n        returns (uint256, uint256)\r\n    {\r\n        address priceFeedAddress = tokenPriceFeedMapping[_token];\r\n        AggregatorV3Interface priceFeed = AggregatorV3Interface(\r\n            priceFeedAddress\r\n        );\r\n        //grabbing the int256 price from pricefeed.latestRoundData()\r\n        (, int256 price, , , ) = priceFeed.latestRoundData();\r\n        //we also need to get the decimals the pricefeed contract has so we use the same units\r\n        uint256 decimals = uint256(priceFeed.decimals());\r\n        //return both price and decimals\r\n        return (uint256(price), decimals);\r\n    }\r\n\r\n    function stakeTokens(uint256 _amount, address _token) public {\r\n        require(_amount > 0, \"Amount must be more than 0\");\r\n        require(tokenIsAllowed(_token), \"Token is currently no allowed\");\r\n        IERC20(_token).transferFrom(msg.sender, address(this), _amount);\r\n        updateUniqueTokensStaked(msg.sender, _token);\r\n        stakingBalance[_token][msg.sender] =\r\n            stakingBalance[_token][msg.sender] +\r\n            _amount;\r\n        if (uniqueTokensStaked[msg.sender] == 1) {\r\n            stakers.push(msg.sender);\r\n        }\r\n    }\r\n\r\n    function unstakeTokens(address _token) public {\r\n        //is this vulnerable to reentrancy attacks?\r\n        //revist and update\r\n        uint256 balance = stakingBalance[_token][msg.sender];\r\n        require(balance > 0, \"Staking balance cannot be 0\");\r\n        IERC20(_token).transfer(msg.sender, balance);\r\n        stakingBalance[_token][msg.sender] = 0;\r\n        uniqueTokensStaked[msg.sender] = uniqueTokensStaked[msg.sender] - 1;\r\n        //update: try to update stakers array to remove this user from the list after they have unstaked their tokens\r\n        //stakers[_token][msg.sender].splice;\r\n    }\r\n\r\n    function updateUniqueTokensStaked(address _user, address _token) internal {\r\n        if (stakingBalance[_token][_user] <= 0) {\r\n            uniqueTokensStaked[_user] = uniqueTokensStaked[_user] + 1;\r\n        }\r\n    }\r\n\r\n    function addAllowedTokens(address _token) public onlyOwner {\r\n        allowedTokens.push(_token);\r\n    }\r\n\r\n    function tokenIsAllowed(address _token) public returns (bool) {\r\n        for (\r\n            uint256 allowedTokensIndex = 0;\r\n            allowedTokensIndex < allowedTokens.length;\r\n            allowedTokensIndex++\r\n        ) {\r\n            if (allowedTokens[allowedTokensIndex] == _token) {\r\n                return true;\r\n            }\r\n        }\r\n        return false;\r\n    }\r\n}\r\n",
  "sourcePath": "G:\\Users\\Genesis\\Defi_Test\\contracts\\TokenFarm.sol",
  "compiler": {
    "name": "solc",
    "version": "0.8.0+commit.c7dfd78e.Emscripten.clang"
  },
  "schemaVersion": "3.4.4",
  "updatedAt": "2022-01-26T04:28:35.550Z",
  "networkType": "ethereum",
  "devdoc": {
    "kind": "dev",
    "methods": {
      "owner()": {
        "details": "Returns the address of the current owner."
      },
      "renounceOwnership()": {
        "details": "Leaves the contract without owner. It will not be possible to call `onlyOwner` functions anymore. Can only be called by the current owner. NOTE: Renouncing ownership will leave the contract without an owner, thereby removing any functionality that is only available to the owner."
      },
      "transferOwnership(address)": {
        "details": "Transfers ownership of the contract to a new account (`newOwner`). Can only be called by the current owner."
      }
    },
    "version": 1
  },
  "userdoc": {
    "kind": "user",
    "methods": {},
    "version": 1
  }
}